{
  "_format": "hh-sol-artifact-1",
  "contractName": "ThingsToken",
  "sourceName": "contracts/ThingsToken.sol",
  "abi": [
    {
      "inputs": [
        {
          "internalType": "string",
          "name": "name_",
          "type": "string"
        },
        {
          "internalType": "string",
          "name": "symbol_",
          "type": "string"
        },
        {
          "internalType": "uint8",
          "name": "decimals_",
          "type": "uint8"
        }
      ],
      "stateMutability": "nonpayable",
      "type": "constructor"
    },
    {
      "inputs": [
        {
          "internalType": "uint256",
          "name": "value",
          "type": "uint256"
        },
        {
          "internalType": "uint256",
          "name": "length",
          "type": "uint256"
        }
      ],
      "name": "StringsInsufficientHexLength",
      "type": "error"
    },
    {
      "anonymous": false,
      "inputs": [
        {
          "indexed": true,
          "internalType": "address",
          "name": "_owner",
          "type": "address"
        },
        {
          "indexed": true,
          "internalType": "address",
          "name": "_approved",
          "type": "address"
        },
        {
          "indexed": true,
          "internalType": "uint256",
          "name": "_tokenId",
          "type": "uint256"
        }
      ],
      "name": "Approval",
      "type": "event"
    },
    {
      "anonymous": false,
      "inputs": [
        {
          "indexed": true,
          "internalType": "address",
          "name": "_owner",
          "type": "address"
        },
        {
          "indexed": true,
          "internalType": "address",
          "name": "_operator",
          "type": "address"
        },
        {
          "indexed": false,
          "internalType": "bool",
          "name": "_approved",
          "type": "bool"
        }
      ],
      "name": "ApprovalForAll",
      "type": "event"
    },
    {
      "anonymous": false,
      "inputs": [
        {
          "indexed": true,
          "internalType": "uint256",
          "name": "_tokenId",
          "type": "uint256"
        },
        {
          "indexed": true,
          "internalType": "address",
          "name": "_operator",
          "type": "address"
        },
        {
          "indexed": false,
          "internalType": "uint256",
          "name": "_value",
          "type": "uint256"
        }
      ],
      "name": "ApprovalValue",
      "type": "event"
    },
    {
      "anonymous": false,
      "inputs": [
        {
          "indexed": true,
          "internalType": "address",
          "name": "metadataDescriptor",
          "type": "address"
        }
      ],
      "name": "SetMetadataDescriptor",
      "type": "event"
    },
    {
      "anonymous": false,
      "inputs": [
        {
          "indexed": true,
          "internalType": "uint256",
          "name": "_tokenId",
          "type": "uint256"
        },
        {
          "indexed": true,
          "internalType": "uint256",
          "name": "_oldSlot",
          "type": "uint256"
        },
        {
          "indexed": true,
          "internalType": "uint256",
          "name": "_newSlot",
          "type": "uint256"
        }
      ],
      "name": "SlotChanged",
      "type": "event"
    },
    {
      "anonymous": false,
      "inputs": [
        {
          "indexed": true,
          "internalType": "address",
          "name": "_from",
          "type": "address"
        },
        {
          "indexed": true,
          "internalType": "address",
          "name": "_to",
          "type": "address"
        },
        {
          "indexed": true,
          "internalType": "uint256",
          "name": "_tokenId",
          "type": "uint256"
        }
      ],
      "name": "Transfer",
      "type": "event"
    },
    {
      "anonymous": false,
      "inputs": [
        {
          "indexed": true,
          "internalType": "uint256",
          "name": "_fromTokenId",
          "type": "uint256"
        },
        {
          "indexed": true,
          "internalType": "uint256",
          "name": "_toTokenId",
          "type": "uint256"
        },
        {
          "indexed": false,
          "internalType": "uint256",
          "name": "_value",
          "type": "uint256"
        }
      ],
      "name": "TransferValue",
      "type": "event"
    },
    {
      "anonymous": false,
      "inputs": [
        {
          "indexed": true,
          "internalType": "uint256",
          "name": "tokenId",
          "type": "uint256"
        },
        {
          "indexed": true,
          "internalType": "address",
          "name": "newGuard",
          "type": "address"
        },
        {
          "indexed": false,
          "internalType": "address",
          "name": "oldGuard",
          "type": "address"
        },
        {
          "indexed": false,
          "internalType": "uint64",
          "name": "expires",
          "type": "uint64"
        }
      ],
      "name": "UpdateGuardLog",
      "type": "event"
    },
    {
      "inputs": [
        {
          "internalType": "uint256",
          "name": "tokenId_",
          "type": "uint256"
        },
        {
          "internalType": "address",
          "name": "operator_",
          "type": "address"
        }
      ],
      "name": "allowance",
      "outputs": [
        {
          "internalType": "uint256",
          "name": "",
          "type": "uint256"
        }
      ],
      "stateMutability": "view",
      "type": "function"
    },
    {
      "inputs": [
        {
          "internalType": "address",
          "name": "to_",
          "type": "address"
        },
        {
          "internalType": "uint256",
          "name": "tokenId_",
          "type": "uint256"
        }
      ],
      "name": "approve",
      "outputs": [],
      "stateMutability": "payable",
      "type": "function"
    },
    {
      "inputs": [
        {
          "internalType": "uint256",
          "name": "tokenId_",
          "type": "uint256"
        },
        {
          "internalType": "address",
          "name": "to_",
          "type": "address"
        },
        {
          "internalType": "uint256",
          "name": "value_",
          "type": "uint256"
        }
      ],
      "name": "approve",
      "outputs": [],
      "stateMutability": "payable",
      "type": "function"
    },
    {
      "inputs": [
        {
          "internalType": "address",
          "name": "owner_",
          "type": "address"
        }
      ],
      "name": "balanceOf",
      "outputs": [
        {
          "internalType": "uint256",
          "name": "balance",
          "type": "uint256"
        }
      ],
      "stateMutability": "view",
      "type": "function"
    },
    {
      "inputs": [
        {
          "internalType": "uint256",
          "name": "tokenId_",
          "type": "uint256"
        }
      ],
      "name": "balanceOf",
      "outputs": [
        {
          "internalType": "uint256",
          "name": "",
          "type": "uint256"
        }
      ],
      "stateMutability": "view",
      "type": "function"
    },
    {
      "inputs": [
        {
          "internalType": "uint256",
          "name": "tokenId_",
          "type": "uint256"
        }
      ],
      "name": "burn",
      "outputs": [],
      "stateMutability": "nonpayable",
      "type": "function"
    },
    {
      "inputs": [
        {
          "internalType": "uint256",
          "name": "tokenId_",
          "type": "uint256"
        },
        {
          "internalType": "uint256",
          "name": "burnValue_",
          "type": "uint256"
        }
      ],
      "name": "burnValue",
      "outputs": [],
      "stateMutability": "nonpayable",
      "type": "function"
    },
    {
      "inputs": [
        {
          "internalType": "uint256",
          "name": "tokenId",
          "type": "uint256"
        },
        {
          "internalType": "address",
          "name": "newGuard",
          "type": "address"
        },
        {
          "internalType": "uint64",
          "name": "expires",
          "type": "uint64"
        }
      ],
      "name": "changeGuard",
      "outputs": [],
      "stateMutability": "nonpayable",
      "type": "function"
    },
    {
      "inputs": [],
      "name": "contractURI",
      "outputs": [
        {
          "internalType": "string",
          "name": "",
          "type": "string"
        }
      ],
      "stateMutability": "view",
      "type": "function"
    },
    {
      "inputs": [
        {
          "internalType": "uint256",
          "name": "tokenId_",
          "type": "uint256"
        }
      ],
      "name": "exists",
      "outputs": [
        {
          "internalType": "bool",
          "name": "",
          "type": "bool"
        }
      ],
      "stateMutability": "view",
      "type": "function"
    },
    {
      "inputs": [
        {
          "internalType": "uint256",
          "name": "tokenId_",
          "type": "uint256"
        }
      ],
      "name": "getApproved",
      "outputs": [
        {
          "internalType": "address",
          "name": "",
          "type": "address"
        }
      ],
      "stateMutability": "view",
      "type": "function"
    },
    {
      "inputs": [
        {
          "internalType": "uint256",
          "name": "tokenId",
          "type": "uint256"
        }
      ],
      "name": "guardInfo",
      "outputs": [
        {
          "internalType": "address",
          "name": "",
          "type": "address"
        },
        {
          "internalType": "uint64",
          "name": "",
          "type": "uint64"
        }
      ],
      "stateMutability": "view",
      "type": "function"
    },
    {
      "inputs": [
        {
          "internalType": "address",
          "name": "owner_",
          "type": "address"
        },
        {
          "internalType": "address",
          "name": "operator_",
          "type": "address"
        }
      ],
      "name": "isApprovedForAll",
      "outputs": [
        {
          "internalType": "bool",
          "name": "",
          "type": "bool"
        }
      ],
      "stateMutability": "view",
      "type": "function"
    },
    {
      "inputs": [],
      "name": "metadataDescriptor",
      "outputs": [
        {
          "internalType": "contract IERC3525MetadataDescriptor",
          "name": "",
          "type": "address"
        }
      ],
      "stateMutability": "view",
      "type": "function"
    },
    {
      "inputs": [
        {
          "internalType": "address",
          "name": "mintTo_",
          "type": "address"
        },
        {
          "internalType": "uint256",
          "name": "slot_",
          "type": "uint256"
        },
        {
          "internalType": "uint256",
          "name": "value_",
          "type": "uint256"
        }
      ],
      "name": "mint",
      "outputs": [],
      "stateMutability": "nonpayable",
      "type": "function"
    },
    {
      "inputs": [
        {
          "internalType": "address",
          "name": "mintTo_",
          "type": "address"
        },
        {
          "internalType": "uint256",
          "name": "tokenId_",
          "type": "uint256"
        },
        {
          "internalType": "uint256",
          "name": "slot_",
          "type": "uint256"
        },
        {
          "internalType": "uint256",
          "name": "value_",
          "type": "uint256"
        }
      ],
      "name": "mint",
      "outputs": [],
      "stateMutability": "nonpayable",
      "type": "function"
    },
    {
      "inputs": [
        {
          "internalType": "uint256",
          "name": "tokenId_",
          "type": "uint256"
        },
        {
          "internalType": "uint256",
          "name": "value_",
          "type": "uint256"
        }
      ],
      "name": "mintValue",
      "outputs": [],
      "stateMutability": "nonpayable",
      "type": "function"
    },
    {
      "inputs": [],
      "name": "name",
      "outputs": [
        {
          "internalType": "string",
          "name": "",
          "type": "string"
        }
      ],
      "stateMutability": "view",
      "type": "function"
    },
    {
      "inputs": [],
      "name": "owner",
      "outputs": [
        {
          "internalType": "address",
          "name": "",
          "type": "address"
        }
      ],
      "stateMutability": "view",
      "type": "function"
    },
    {
      "inputs": [
        {
          "internalType": "uint256",
          "name": "tokenId_",
          "type": "uint256"
        }
      ],
      "name": "ownerOf",
      "outputs": [
        {
          "internalType": "address",
          "name": "owner_",
          "type": "address"
        }
      ],
      "stateMutability": "view",
      "type": "function"
    },
    {
      "inputs": [
        {
          "internalType": "uint256",
          "name": "tokenId",
          "type": "uint256"
        }
      ],
      "name": "removeGuard",
      "outputs": [],
      "stateMutability": "nonpayable",
      "type": "function"
    },
    {
      "inputs": [
        {
          "internalType": "address",
          "name": "from_",
          "type": "address"
        },
        {
          "internalType": "address",
          "name": "to_",
          "type": "address"
        },
        {
          "internalType": "uint256",
          "name": "tokenId_",
          "type": "uint256"
        }
      ],
      "name": "safeTransferFrom",
      "outputs": [],
      "stateMutability": "payable",
      "type": "function"
    },
    {
      "inputs": [
        {
          "internalType": "address",
          "name": "from",
          "type": "address"
        },
        {
          "internalType": "address",
          "name": "to",
          "type": "address"
        },
        {
          "internalType": "uint256",
          "name": "tokenId",
          "type": "uint256"
        },
        {
          "internalType": "bytes",
          "name": "_data",
          "type": "bytes"
        }
      ],
      "name": "safeTransferFrom",
      "outputs": [],
      "stateMutability": "payable",
      "type": "function"
    },
    {
      "inputs": [
        {
          "internalType": "address",
          "name": "operator_",
          "type": "address"
        },
        {
          "internalType": "bool",
          "name": "approved_",
          "type": "bool"
        }
      ],
      "name": "setApprovalForAll",
      "outputs": [],
      "stateMutability": "nonpayable",
      "type": "function"
    },
    {
      "inputs": [
        {
          "internalType": "uint256",
          "name": "tokenId_",
          "type": "uint256"
        },
        {
          "internalType": "string",
          "name": "uri_",
          "type": "string"
        }
      ],
      "name": "setTokenURI",
      "outputs": [],
      "stateMutability": "nonpayable",
      "type": "function"
    },
    {
      "inputs": [
        {
          "internalType": "uint256",
          "name": "tokenId_",
          "type": "uint256"
        }
      ],
      "name": "slotOf",
      "outputs": [
        {
          "internalType": "uint256",
          "name": "",
          "type": "uint256"
        }
      ],
      "stateMutability": "view",
      "type": "function"
    },
    {
      "inputs": [
        {
          "internalType": "uint256",
          "name": "slot_",
          "type": "uint256"
        }
      ],
      "name": "slotURI",
      "outputs": [
        {
          "internalType": "string",
          "name": "",
          "type": "string"
        }
      ],
      "stateMutability": "view",
      "type": "function"
    },
    {
      "inputs": [
        {
          "internalType": "bytes4",
          "name": "interfaceId",
          "type": "bytes4"
        }
      ],
      "name": "supportsInterface",
      "outputs": [
        {
          "internalType": "bool",
          "name": "",
          "type": "bool"
        }
      ],
      "stateMutability": "view",
      "type": "function"
    },
    {
      "inputs": [],
      "name": "symbol",
      "outputs": [
        {
          "internalType": "string",
          "name": "",
          "type": "string"
        }
      ],
      "stateMutability": "view",
      "type": "function"
    },
    {
      "inputs": [
        {
          "internalType": "uint256",
          "name": "index_",
          "type": "uint256"
        }
      ],
      "name": "tokenByIndex",
      "outputs": [
        {
          "internalType": "uint256",
          "name": "",
          "type": "uint256"
        }
      ],
      "stateMutability": "view",
      "type": "function"
    },
    {
      "inputs": [
        {
          "internalType": "address",
          "name": "owner_",
          "type": "address"
        },
        {
          "internalType": "uint256",
          "name": "index_",
          "type": "uint256"
        }
      ],
      "name": "tokenOfOwnerByIndex",
      "outputs": [
        {
          "internalType": "uint256",
          "name": "",
          "type": "uint256"
        }
      ],
      "stateMutability": "view",
      "type": "function"
    },
    {
      "inputs": [
        {
          "internalType": "uint256",
          "name": "tokenId_",
          "type": "uint256"
        }
      ],
      "name": "tokenURI",
      "outputs": [
        {
          "internalType": "string",
          "name": "",
          "type": "string"
        }
      ],
      "stateMutability": "view",
      "type": "function"
    },
    {
      "inputs": [],
      "name": "totalSupply",
      "outputs": [
        {
          "internalType": "uint256",
          "name": "",
          "type": "uint256"
        }
      ],
      "stateMutability": "view",
      "type": "function"
    },
    {
      "inputs": [
        {
          "internalType": "address",
          "name": "from",
          "type": "address"
        },
        {
          "internalType": "address",
          "name": "to",
          "type": "address"
        },
        {
          "internalType": "uint256",
          "name": "tokenId",
          "type": "uint256"
        }
      ],
      "name": "transferAndRemove",
      "outputs": [],
      "stateMutability": "nonpayable",
      "type": "function"
    },
    {
      "inputs": [
        {
          "internalType": "uint256",
          "name": "fromTokenId_",
          "type": "uint256"
        },
        {
          "internalType": "address",
          "name": "to_",
          "type": "address"
        },
        {
          "internalType": "uint256",
          "name": "value_",
          "type": "uint256"
        }
      ],
      "name": "transferFrom",
      "outputs": [
        {
          "internalType": "uint256",
          "name": "newTokenId",
          "type": "uint256"
        }
      ],
      "stateMutability": "payable",
      "type": "function"
    },
    {
      "inputs": [
        {
          "internalType": "address",
          "name": "from",
          "type": "address"
        },
        {
          "internalType": "address",
          "name": "to",
          "type": "address"
        },
        {
          "internalType": "uint256",
          "name": "tokenId",
          "type": "uint256"
        }
      ],
      "name": "transferFrom",
      "outputs": [],
      "stateMutability": "payable",
      "type": "function"
    },
    {
      "inputs": [
        {
          "internalType": "uint256",
          "name": "fromTokenId_",
          "type": "uint256"
        },
        {
          "internalType": "uint256",
          "name": "toTokenId_",
          "type": "uint256"
        },
        {
          "internalType": "uint256",
          "name": "value_",
          "type": "uint256"
        }
      ],
      "name": "transferFrom",
      "outputs": [],
      "stateMutability": "payable",
      "type": "function"
    },
    {
      "inputs": [],
      "name": "valueDecimals",
      "outputs": [
        {
          "internalType": "uint8",
          "name": "",
          "type": "uint8"
        }
      ],
      "stateMutability": "view",
      "type": "function"
    }
  ],
  "bytecode": "0x608060405234801561001057600080fd5b50604051613eca380380613eca83398101604081905261002f9161015d565b600160035582828282828260006100468482610269565b5060016100538382610269565b506002805460ff191660ff929092169190911790555061007793506100a092505050565b600980546001600160a01b0319166001600160a01b039290921691909117905550610327915050565b3390565b634e487b7160e01b600052604160045260246000fd5b600082601f8301126100cb57600080fd5b81516001600160401b038111156100e4576100e46100a4565b604051601f8201601f19908116603f011681016001600160401b0381118282101715610112576101126100a4565b60405281815283820160200185101561012a57600080fd5b60005b828110156101495760208186018101518383018201520161012d565b506000918101602001919091529392505050565b60008060006060848603121561017257600080fd5b83516001600160401b0381111561018857600080fd5b610194868287016100ba565b602086015190945090506001600160401b038111156101b257600080fd5b6101be868287016100ba565b925050604084015160ff811681146101d557600080fd5b809150509250925092565b600181811c908216806101f457607f821691505b60208210810361021457634e487b7160e01b600052602260045260246000fd5b50919050565b601f82111561026457806000526020600020601f840160051c810160208510156102415750805b601f840160051c820191505b81811015610261576000815560010161024d565b50505b505050565b81516001600160401b03811115610282576102826100a4565b6102968161029084546101e0565b8461021a565b6020601f8211600181146102ca57600083156102b25750848201515b600019600385901b1c1916600184901b178455610261565b600084815260208120601f198516915b828110156102fa57878501518255602094850194600190920191016102da565b50848210156103185786840151600019600387901b60f8161c191681555b50505050600190811b01905550565b613b94806103366000396000f3fe6080604052600436106102255760003560e01c80636352211e11610123578063a647e8ec116100ab578063da52d9bc1161006f578063da52d9bc14610641578063e345e0bc14610661578063e8a3d48514610681578063e985e9c514610696578063f0e88e7f146106e357600080fd5b8063a647e8ec14610587578063b4652ae5146105a7578063b88d4fde146105c7578063c87b56dd146105da578063d7e69d55146105fa57600080fd5b80638cb0a511116100f25780638cb0a511146104ff5780638da5cb5b1461051257806395d89b41146105325780639cc7f70814610547578063a22cb4651461056757600080fd5b80636352211e1461047f57806370a082311461049f578063840f7113146104bf57806387fe8611146104df57600080fd5b806318160ddd116101b15780633e7e8669116101755780633e7e8669146103ea57806342842e0e1461040c57806342966c681461041f5780634f558e791461043f5780634f6ccce71461045f57600080fd5b806318160ddd1461036f57806323b872dd14610384578063263f3e7e146103975780632f745c59146103b7578063310ed7f0146103d757600080fd5b806309c3dd87116101f857806309c3dd87146102ce5780630f485c02146102ee5780630fcc7e5b1461030f578063156e29f61461032f578063162094c41461034f57600080fd5b806301ffc9a71461022a57806306fdde031461025f578063081812fc14610281578063095ea7b3146102b9575b600080fd5b34801561023657600080fd5b5061024a610245366004613267565b610703565b60405190151581526020015b60405180910390f35b34801561026b57600080fd5b5061027461072e565b60405161025691906132d4565b34801561028d57600080fd5b506102a161029c3660046132e7565b6107c0565b6040516001600160a01b039091168152602001610256565b6102cc6102c7366004613317565b610812565b005b3480156102da57600080fd5b506102746102e93660046132e7565b6108f6565b6103016102fc366004613341565b6109e8565b604051908152602001610256565b34801561031b57600080fd5b506102cc61032a366004613377565b610a20565b34801561033b57600080fd5b506102cc61034a3660046133a3565b610a34565b34801561035b57600080fd5b506102cc61036a366004613481565b610a45565b34801561037b57600080fd5b50600554610301565b6102cc610392366004613377565b610ac7565b3480156103a357600080fd5b506103016103b23660046132e7565b610b36565b3480156103c357600080fd5b506103016103d2366004613317565b610b7e565b6102cc6103e53660046134db565b610c1f565b3480156103f657600080fd5b5060025460405160ff9091168152602001610256565b6102cc61041a366004613377565b610c35565b34801561042b57600080fd5b506102cc61043a3660046132e7565b610c50565b34801561044b57600080fd5b5061024a61045a3660046132e7565b610c5c565b34801561046b57600080fd5b5061030161047a3660046132e7565b610c67565b34801561048b57600080fd5b506102a161049a3660046132e7565b610cf8565b3480156104ab57600080fd5b506103016104ba366004613507565b610d94565b3480156104cb57600080fd5b506008546102a1906001600160a01b031681565b3480156104eb57600080fd5b506102cc6104fa366004613522565b610e1c565b6102cc61050d366004613341565b610e2a565b34801561051e57600080fd5b506009546102a1906001600160a01b031681565b34801561053e57600080fd5b50610274610ee4565b34801561055357600080fd5b506103016105623660046132e7565b610ef3565b34801561057357600080fd5b506102cc610582366004613552565b610f3b565b34801561059357600080fd5b506102cc6105a2366004613589565b610f46565b3480156105b357600080fd5b506102cc6105c23660046135c2565b610f52565b6102cc6105d536600461360e565b610fb7565b3480156105e657600080fd5b506102746105f53660046132e7565b611027565b34801561060657600080fd5b5061061a6106153660046132e7565b611141565b604080516001600160a01b0390931683526001600160401b03909116602083015201610256565b34801561064d57600080fd5b506102cc61065c3660046132e7565b6111a4565b34801561066d57600080fd5b5061030161067c366004613689565b6111b2565b34801561068d57600080fd5b506102746111e6565b3480156106a257600080fd5b5061024a6106b13660046136b5565b6001600160a01b0391821660009081526007602090815260408083209390941682526002909201909152205460ff1690565b3480156106ef57600080fd5b506102cc6106fe366004613522565b6112e0565b60006001600160e01b0319821663b61d105760e01b14806107285750610728826112ea565b92915050565b60606000805461073d906136df565b80601f0160208091040260200160405190810160405280929190818152602001828054610769906136df565b80156107b65780601f1061078b576101008083540402835291602001916107b6565b820191906000526020600020905b81548152906001019060200180831161079957829003601f168201915b5050505050905090565b60006107cb8261138c565b6000828152600660205260409020546005805490919081106107ef576107ef613719565b60009182526020909120600460069092020101546001600160a01b031692915050565b600061081d82610cf8565b9050806001600160a01b0316836001600160a01b0316036108595760405162461bcd60e51b81526004016108509061372f565b60405180910390fd5b336001600160a01b0382161480610875575061087581336106b1565b6108e75760405162461bcd60e51b815260206004820152603960248201527f455243333532353a20617070726f76652063616c6c6572206973206e6f74206f60448201527f776e6572206e6f7220617070726f76656420666f7220616c6c000000000000006064820152608401610850565b6108f183836113dd565b505050565b6060600061090f60408051602081019091526000815290565b6008549091506001600160a01b031661096f57600081511161094057604051806020016040528060008152506109e1565b8061094a84611474565b60405160200161095b929190613771565b6040516020818303038152906040526109e1565b600854604051633601bfc560e11b8152600481018590526001600160a01b0390911690636c037f8a906024015b600060405180830381865afa1580156109b9573d6000803e3d6000fd5b505050506040513d6000823e601f3d908101601f191682016040526109e191908101906137b1565b9392505050565b60006109f5338584611506565b6109fe84611596565b9050610a158382610a0e87610b36565b60006115a0565b6109e18482846116ca565b610a2b838383610c35565b6108f1816111a4565b610a3f8383836119a9565b50505050565b610a4e826119c1565b610aaf5760405162461bcd60e51b815260206004820152602c60248201527f4552433732314d657461646174613a2055524920736574206f66206e6f6e657860448201526b34b9ba32b73a103a37b5b2b760a11b6064820152608401610850565b6000828152600b602052604090206108f1828261386e565b6000836001600160a01b03811615610af057610ae283611a0d565b9150610aed83610cf8565b90505b6001600160a01b038216610b2457610b083384611ab0565b610b245760405162461bcd60e51b81526004016108509061392c565b610b2f818585611b33565b5050505050565b6000610b418261138c565b600082815260066020526040902054600580549091908110610b6557610b65613719565b9060005260206000209060060201600101549050919050565b6000610b8983610d94565b8210610be25760405162461bcd60e51b815260206004820152602260248201527f455243333532353a206f776e657220696e646578206f7574206f6620626f756e604482015261647360f01b6064820152608401610850565b6001600160a01b0383166000908152600760205260409020805483908110610c0c57610c0c613719565b9060005260206000200154905092915050565b610c2a338483611506565b6108f18383836116ca565b6108f183838360405180602001604052806000815250610fb7565b610c5981611c94565b50565b6000610728826119c1565b6000610c7260055490565b8210610ccc5760405162461bcd60e51b815260206004820152602360248201527f455243333532353a20676c6f62616c20696e646578206f7574206f6620626f756044820152626e647360e81b6064820152608401610850565b60058281548110610cdf57610cdf613719565b9060005260206000209060060201600001549050919050565b6000610d038261138c565b600082815260066020526040902054600580549091908110610d2757610d27613719565b60009182526020909120600360069092020101546001600160a01b0316905080610d8f5760405162461bcd60e51b8152602060048201526019602482015278115490cccd4c8d4e881a5b9d985b1a59081d1bdad95b881251603a1b6044820152606401610850565b919050565b60006001600160a01b038216610e005760405162461bcd60e51b815260206004820152602b60248201527f455243333532353a2062616c616e636520717565727920666f7220746865207a60448201526a65726f206164647265737360a81b6064820152608401610850565b506001600160a01b031660009081526007602052604090205490565b610e268282611d46565b5050565b6000610e3584610cf8565b9050806001600160a01b0316836001600160a01b031603610e685760405162461bcd60e51b81526004016108509061372f565b610e73335b85611ab0565b610ed95760405162461bcd60e51b815260206004820152603160248201527f455243333532353a20617070726f76652063616c6c6572206973206e6f74206f6044820152701ddb995c881b9bdc88185c1c1c9bdd9959607a1b6064820152608401610850565b610a3f848484611e41565b60606001805461073d906136df565b6000610efe8261138c565b600082815260066020526040902054600580549091908110610f2257610f22613719565b9060005260206000209060060201600201549050919050565b610e26338383611f79565b610a3f848484846115a0565b42816001600160401b031611610faa5760405162461bcd60e51b815260206004820152601860248201527f455243363134373a20696e76616c6964206578706972657300000000000000006044820152606401610850565b6108f18383836000612043565b6000846001600160a01b03811615610fe057610fd284611a0d565b9150610fdd84610cf8565b90505b6001600160a01b03821661101357610ff733610e6d565b6110135760405162461bcd60e51b81526004016108509061392c565b61101f86868686612260565b505050505050565b6060611032826119c1565b6110965760405162461bcd60e51b815260206004820152602f60248201527f4552433732314d657461646174613a2055524920717565727920666f72206e6f60448201526e3732bc34b9ba32b73a103a37b5b2b760891b6064820152608401610850565b6000828152600b6020526040812080546110af906136df565b80601f01602080910402602001604051908101604052809291908181526020018280546110db906136df565b80156111285780601f106110fd57610100808354040283529160200191611128565b820191906000526020600020905b81548152906001019060200180831161110b57829003601f168201915b505050505090508051600003610728576109e1836122d3565b6000818152600a6020526040812054819042600160a01b9091046001600160401b0316106111995750506000908152600a60205260409020546001600160a01b03811691600160a01b9091046001600160401b031690565b506000928392509050565b610c59816000806001612043565b60006111bd8361138c565b5060009182526004602090815260408084206001600160a01b0393909316845291905290205490565b606060006111ff60408051602081019091526000815290565b6008549091506001600160a01b031661125f57600081511161123057604051806020016040528060008152506112da565b8061123a30612372565b60405160200161124b92919061397d565b6040516020818303038152906040526112da565b600860009054906101000a90046001600160a01b03166001600160a01b031663725fa09c6040518163ffffffff1660e01b8152600401600060405180830381865afa1580156112b2573d6000803e3d6000fd5b505050506040513d6000823e601f3d908101601f191682016040526112da91908101906137b1565b91505090565b610e268282612388565b60006001600160e01b031982166301ffc9a760e01b148061131b57506001600160e01b03198216630354d60560e61b145b8061133657506001600160e01b031982166380ac58cd60e01b145b8061135157506001600160e01b031982166370b0048160e11b145b8061136c57506001600160e01b0319821663780e9d6360e01b145b8061072857506001600160e01b03198216635b5e139f60e01b1492915050565b611395816119c1565b610c595760405162461bcd60e51b8152602060048201526019602482015278115490cccd4c8d4e881a5b9d985b1a59081d1bdad95b881251603a1b6044820152606401610850565b60008181526006602052604090205460058054849290811061140157611401613719565b6000918252602090912060069091020160040180546001600160a01b0319166001600160a01b039283161790558190831661143b82610cf8565b6001600160a01b03167f8c5be1e5ebec7d5bd14f71427d1e84f3dd0314c0f7b2291e5b200ac8c7c3b92560405160405180910390a45050565b60606000611481836123ac565b60010190506000816001600160401b038111156114a0576114a06133d6565b6040519080825280601f01601f1916602001820160405280156114ca576020820181803683370190505b5090508181016020015b600019016f181899199a1a9b1b9c1cb0b131b232b360811b600a86061a8153600a85049450846114d457509392505050565b600061151283856111b2565b905061151e8484611ab0565b15801561152d57506000198114155b15610a3f57818110156115825760405162461bcd60e51b815260206004820152601f60248201527f455243333532353a20696e73756666696369656e7420616c6c6f77616e6365006044820152606401610850565b610a3f838561159185856139d7565b611e41565b6000610728612484565b6001600160a01b0384166116005760405162461bcd60e51b815260206004820152602160248201527f455243333532353a206d696e7420746f20746865207a65726f206164647265736044820152607360f81b6064820152608401610850565b8260000361165a5760405162461bcd60e51b815260206004820152602160248201527f455243333532353a2063616e6e6f74206d696e74207a65726f20746f6b656e496044820152601960fa1b6064820152608401610850565b611663836119c1565b156116b05760405162461bcd60e51b815260206004820152601d60248201527f455243333532353a20746f6b656e20616c7265616479206d696e7465640000006044820152606401610850565b6116bb84848461249e565b6116c58382612564565b610a3f565b6116d3836119c1565b61172f5760405162461bcd60e51b815260206004820152602760248201527f455243333532353a207472616e736665722066726f6d20696e76616c696420746044820152661bdad95b88125160ca1b6064820152608401610850565b611738826119c1565b6117925760405162461bcd60e51b815260206004820152602560248201527f455243333532353a207472616e7366657220746f20696e76616c696420746f6b604482015264195b88125160da1b6064820152608401610850565b6000838152600660205260408120546005805490919081106117b6576117b6613719565b90600052602060002090600602019050600060056006600086815260200190815260200160002054815481106117ee576117ee613719565b9060005260206000209060060201905082826002015410156118655760405162461bcd60e51b815260206004820152602a60248201527f455243333532353a20696e73756666696369656e742062616c616e636520666f60448201526939103a3930b739b332b960b11b6064820152608401610850565b80600101548260010154146118d35760405162461bcd60e51b815260206004820152602e60248201527f455243333532353a207472616e7366657220746f20746f6b656e20776974682060448201526d191a5999995c995b9d081cdb1bdd60921b6064820152608401610850565b828260020160008282546118e791906139d7565b925050819055508281600201600082825461190291906139ea565b909155505060405183815284908690600080516020613b3f8339815191529060200160405180910390a3611947858585604051806020016040528060008152506125d0565b610b2f5760405162461bcd60e51b815260206004820152602d60248201527f455243333532353a207472616e736665722072656a656374656420627920455260448201526c21999a991aa932b1b2b4bb32b960991b6064820152608401610850565b60006119b3612484565b90506109e1848285856115a0565b6005546000901580159061072857506000828152600660205260409020546005805484929081106119f4576119f4613719565b9060005260206000209060060201600001541492915050565b600080611a1983611141565b509050336001600160a01b03821615611aa657806001600160a01b0316826001600160a01b031614611a9f5760405162461bcd60e51b815260206004820152602960248201527f455243363134373a2073656e646572206973206e6f74206775617264206f66206044820152683a3432903a37b5b2b760b91b6064820152608401610850565b5092915050565b5060009392505050565b600080611abc83610cf8565b9050806001600160a01b0316846001600160a01b03161480611b0757506001600160a01b038082166000908152600760209081526040808320938816835260029093019052205460ff165b80611b2b5750836001600160a01b0316611b20846107c0565b6001600160a01b0316145b949350505050565b826001600160a01b0316611b4682610cf8565b6001600160a01b031614611ba85760405162461bcd60e51b8152602060048201526024808201527f455243333532353a207472616e736665722066726f6d20696e76616c6964206f6044820152633bb732b960e11b6064820152608401610850565b6001600160a01b038216611c0c5760405162461bcd60e51b815260206004820152602560248201527f455243333532353a207472616e7366657220746f20746865207a65726f206164604482015264647265737360d81b6064820152608401610850565b6000611c1782610b36565b90506000611c2483610ef3565b9050611c316000846113dd565b611c3a83612742565b611c4485846127e3565b611c4e8484612904565b82846001600160a01b0316866001600160a01b03167fddf252ad1be2c89b69c2b068fc378daa952ba7f163c4a11628f55a4df523b3ef60405160405180910390a4610b2f565b6000611c9f82611141565b509050611cab8261298d565b6000828152600a6020908152604080832080546001600160e01b0319169055600b90915290208054611cdc906136df565b159050611cfa576000828152600b60205260408120611cfa9161317f565b604080516001600160a01b03831681526000602082018190529184917f2700960061dd07fc2f2f287653312ad3c1f0d9307ac613c30dff7f6efbbf02c491015b60405180910390a35050565b611d4f8261138c565b600082815260066020526040812054600580549091908110611d7357611d73613719565b600091825260209091206006909102016003810154600182015460028301549293506001600160a01b039091169184811015611dfd5760405162461bcd60e51b815260206004820152602360248201527f455243333532353a206275726e2076616c756520657863656564732062616c616044820152626e636560e81b6064820152608401610850565b84846002016000828254611e1191906139d7565b90915550506040518581526000908790600080516020613b3f8339815191529060200160405180910390a361101f565b6001600160a01b038216611eaa5760405162461bcd60e51b815260206004820152602a60248201527f455243333532353a20617070726f76652076616c756520746f20746865207a65604482015269726f206164647265737360b01b6064820152608401610850565b611eb48284612a9c565b611f1a57600083815260066020526040902054600580549091908110611edc57611edc613719565b60009182526020808320600692909202909101600501805460018101825590835291200180546001600160a01b0319166001600160a01b0384161790555b60008381526004602090815260408083206001600160a01b038616808552908352928190208490555183815285917f621b050de0ad08b51d19b48b3e6df75348c4de6bdd93e81b252ca62e28265b1b91015b60405180910390a3505050565b816001600160a01b0316836001600160a01b031603611fda5760405162461bcd60e51b815260206004820152601a60248201527f455243333532353a20617070726f766520746f2063616c6c65720000000000006044820152606401610850565b6001600160a01b0383811660008181526007602090815260408083209487168084526002909501825291829020805460ff191686151590811790915591519182527f17307eab39ab6107e8899845ad3d59bd9653f200f220920489ca2b5937696c319101611f6c565b600061204e85611141565b509050816120b7576001600160a01b0384166120b75760405162461bcd60e51b815260206004820152602260248201527f455243363134373a206e65772067756172642063616e206e6f74206265206e756044820152611b1b60f21b6064820152608401610850565b6001600160a01b03811615612132576001600160a01b038116331461212d5760405162461bcd60e51b815260206004820152602660248201527f455243363134373a206f6e6c792067756172642063616e206368616e676520696044820152653a1039b2b63360d11b6064820152608401610850565b61219a565b61213c3386611ab0565b61219a5760405162461bcd60e51b815260206004820152602960248201527f455243363134373a2063616c6c6572206973206e6f74206f776e6572206e6f7260448201526808185c1c1c9bdd995960ba1b6064820152608401610850565b6001600160a01b0381161515806121b957506001600160a01b03841615155b15610b2f576040805180820182526001600160a01b038681168083526001600160401b03878116602080860182815260008d8152600a8352889020965187549151909416600160a01b026001600160e01b0319909116938616939093179290921790945584519286168352820192909252909187917f2700960061dd07fc2f2f287653312ad3c1f0d9307ac613c30dff7f6efbbf02c4910160405180910390a35050505050565b61226b848484611b33565b61227784848484612b65565b610a3f5760405162461bcd60e51b815260206004820152602760248201527f455243333532353a207472616e7366657220746f206e6f6e204552433732315260448201526632b1b2b4bb32b960c91b6064820152608401610850565b60606122de8261138c565b60006122f560408051602081019091526000815290565b6008549091506001600160a01b031661234157600081511161232657604051806020016040528060008152506109e1565b8061233084611474565b60405160200161095b9291906139fd565b6008546040516344a5a61760e11b8152600481018590526001600160a01b039091169063894b4c2e9060240161099c565b60606107286001600160a01b0383166014612cab565b600061239383610cf8565b905060006123a084610b36565b90506116c58484612564565b60008072184f03e93ff9f4daa797ed6e38ed64bf6a1f0160401b83106123eb5772184f03e93ff9f4daa797ed6e38ed64bf6a1f0160401b830492506040015b6d04ee2d6d415b85acef81000000008310612417576d04ee2d6d415b85acef8100000000830492506020015b662386f26fc10000831061243557662386f26fc10000830492506010015b6305f5e100831061244d576305f5e100830492506008015b612710831061246157612710830492506004015b60648310612473576064830492506002015b600a83106107285760010192915050565b600380546000918261249583613a2c565b91905055905090565b6040805160c081018252838152602080820184905260008284018190526001600160a01b038716606084015260808301819052835181815291820190935260a082015290506124ec81612e22565b6124f68484612904565b60405183906001600160a01b038616906000907fddf252ad1be2c89b69c2b068fc378daa952ba7f163c4a11628f55a4df523b3ef908290a4816000847fe4f48c240d3b994948aa54f3e2f5fca59263dfe1d52b6e4cf39a5d249b5ccb6560405160405180910390a450505050565b60008281526006602052604090205460058054839290811061258857612588613719565b906000526020600020906006020160020160008282546125a891906139ea565b90915550506040518181528290600090600080516020613b3f83398151915290602001611d3a565b6000806125dc85610cf8565b9050803b63ffffffff1615612736576040516301ffc9a760e01b8152629ce20b60e01b60048201526001600160a01b038216906301ffc9a790602401602060405180830381865afa925050508015612651575060408051601f3d908101601f1916820190925261264e91810190613a45565b60015b612690573d80801561267f576040519150601f19603f3d011682016040523d82523d6000602084013e612684565b606091505b50600192505050611b2b565b801561272b57604051629ce20b60e01b81526000906001600160a01b03841690629ce20b906126cb9033908c908c908c908c90600401613a62565b6020604051808303816000875af11580156126ea573d6000803e3d6000fd5b505050506040513d601f19601f8201168201806040525081019061270e9190613aa0565b6001600160e01b031916629ce20b60e01b149350611b2b92505050565b600192505050611b2b565b50600195945050505050565b60008181526006602052604081205460058054909190811061276657612766613719565b600091825260208220600560069092020190810154909250905b818110156127d457600083600501828154811061279f5761279f613719565b60009182526020808320909101548783526004825260408084206001600160a01b039092168452915281205550600101612780565b506108f16005830160006131b9565b60008181526006602052604081205460058054909190811061280757612807613719565b6000918252602080832060069290920290910160030180546001600160a01b0319166001600160a01b0394851617905591841681526007909152604081208054909190612856906001906139d7565b9050600082600001828154811061286f5761286f613719565b906000526020600020015490506000836001016000868152602001908152602001600020549050818460000182815481106128ac576128ac613719565b600091825260208083209091019290925583815260018601909152604080822083905586825281205583548490806128e6576128e6613abd565b60019003818190600052602060002001600090559055505050505050565b60008181526006602052604090205460058054849290811061292857612928613719565b6000918252602080832060069290920290910160030180546001600160a01b0319166001600160a01b03948516179055939091168152600780845260408083208054858552600182810188529285208190559286529082018155825292902090910155565b6129968161138c565b6000818152600660205260408120546005805490919081106129ba576129ba613719565b60009182526020909120600691909102016003810154600182015460028301549293506001600160a01b03909116916129f285612742565b6129fc83866127e3565b612a0585612f71565b600085600080516020613b3f83398151915283604051612a2791815260200190565b60405180910390a3600082867fe4f48c240d3b994948aa54f3e2f5fca59263dfe1d52b6e4cf39a5d249b5ccb6560405160405180910390a460405185906000906001600160a01b038616907fddf252ad1be2c89b69c2b068fc378daa952ba7f163c4a11628f55a4df523b3ef908390a4610b2f565b600081815260066020526040812054600580548392908110612ac057612ac0613719565b6000918252602082206005600690920201015491505b81811015612b5a57600084815260066020526040902054600580546001600160a01b03881692908110612b0b57612b0b613719565b90600052602060002090600602016005018281548110612b2d57612b2d613719565b6000918252602090912001546001600160a01b031603612b5257600192505050610728565b600101612ad6565b506000949350505050565b6000833b63ffffffff1615612ca357604051630a85bd0160e11b81526001600160a01b0385169063150b7a0290612ba6903390899088908890600401613ad3565b6020604051808303816000875af1925050508015612be1575060408051601f3d908101601f19168201909252612bde91810190613aa0565b60015b612c89573d808015612c0f576040519150601f19603f3d011682016040523d82523d6000602084013e612c14565b606091505b508051600003612c815760405162461bcd60e51b815260206004820152603260248201527f4552433732313a207472616e7366657220746f206e6f6e20455243373231526560448201527131b2b4bb32b91034b6b83632b6b2b73a32b960711b6064820152608401610850565b805181602001fd5b6001600160e01b031916630a85bd0160e11b149050611b2b565b506001611b2b565b6060826000612cbb846002613b10565b612cc69060026139ea565b6001600160401b03811115612cdd57612cdd6133d6565b6040519080825280601f01601f191660200182016040528015612d07576020820181803683370190505b509050600360fc1b81600081518110612d2257612d22613719565b60200101906001600160f81b031916908160001a905350600f60fb1b81600181518110612d5157612d51613719565b60200101906001600160f81b031916908160001a9053506000612d75856002613b10565b612d809060016139ea565b90505b6001811115612df8576f181899199a1a9b1b9c1cb0b131b232b360811b83600f1660108110612db457612db4613719565b1a60f81b828281518110612dca57612dca613719565b60200101906001600160f81b031916908160001a90535060049290921c91612df181613b27565b9050612d83565b508115611b2b5760405163e22e27eb60e01b81526004810186905260248101859052604401610850565b600580548251600090815260066020818152604080842085905560018501865594909252845192027f036b6384b5eca791c62761152d0c79bb0604c104a5fb6f4eb0703f3154bb3db08101928355818501517f036b6384b5eca791c62761152d0c79bb0604c104a5fb6f4eb0703f3154bb3db1820155928401517f036b6384b5eca791c62761152d0c79bb0604c104a5fb6f4eb0703f3154bb3db284015560608401517f036b6384b5eca791c62761152d0c79bb0604c104a5fb6f4eb0703f3154bb3db3840180546001600160a01b039283166001600160a01b03199182161790915560808601517f036b6384b5eca791c62761152d0c79bb0604c104a5fb6f4eb0703f3154bb3db48601805491909316911617905560a084015180518594610a3f937f036b6384b5eca791c62761152d0c79bb0604c104a5fb6f4eb0703f3154bb3db59091019201906131d7565b600554600090612f83906001906139d7565b60008381526006602052604081205460058054939450909284908110612fab57612fab613719565b60009182526020918290206040805160c08101825260069093029091018054835260018101548385015260028101548383015260038101546001600160a01b03908116606085015260048201541660808401526005810180548351818702810187019094528084529394919360a08601939283018282801561305657602002820191906000526020600020905b81546001600160a01b03168152600190910190602001808311613038575b5050505050815250509050806005838154811061307557613075613719565b600091825260209182902083516006909202019081558282015160018201556040830151600282015560608301516003820180546001600160a01b039283166001600160a01b031991821617909155608085015160048401805491909316911617905560a0830151805191926130f3926005850192909101906131d7565b5050815160009081526006602052604080822085905586825281205550600580548061312157613121613abd565b60008281526020812060066000199093019283020181815560018101829055600281018290556003810180546001600160a01b031990811690915560048201805490911690559061317560058301826131b9565b5050905550505050565b50805461318b906136df565b6000825580601f1061319b575050565b601f016020900490600052602060002090810190610c59919061323c565b5080546000825590600052602060002090810190610c59919061323c565b82805482825590600052602060002090810192821561322c579160200282015b8281111561322c57825182546001600160a01b0319166001600160a01b039091161782556020909201916001909101906131f7565b5061323892915061323c565b5090565b5b80821115613238576000815560010161323d565b6001600160e01b031981168114610c5957600080fd5b60006020828403121561327957600080fd5b81356109e181613251565b60005b8381101561329f578181015183820152602001613287565b50506000910152565b600081518084526132c0816020860160208601613284565b601f01601f19169290920160200192915050565b6020815260006109e160208301846132a8565b6000602082840312156132f957600080fd5b5035919050565b80356001600160a01b0381168114610d8f57600080fd5b6000806040838503121561332a57600080fd5b61333383613300565b946020939093013593505050565b60008060006060848603121561335657600080fd5b8335925061336660208501613300565b929592945050506040919091013590565b60008060006060848603121561338c57600080fd5b61339584613300565b925061336660208501613300565b6000806000606084860312156133b857600080fd5b6133c184613300565b95602085013595506040909401359392505050565b634e487b7160e01b600052604160045260246000fd5b604051601f8201601f191681016001600160401b0381118282101715613414576134146133d6565b604052919050565b60006001600160401b03821115613435576134356133d6565b50601f01601f191660200190565b60006134566134518461341c565b6133ec565b905082815283838301111561346a57600080fd5b828260208301376000602084830101529392505050565b6000806040838503121561349457600080fd5b8235915060208301356001600160401b038111156134b157600080fd5b8301601f810185136134c257600080fd5b6134d185823560208401613443565b9150509250929050565b6000806000606084860312156134f057600080fd5b505081359360208301359350604090920135919050565b60006020828403121561351957600080fd5b6109e182613300565b6000806040838503121561353557600080fd5b50508035926020909101359150565b8015158114610c5957600080fd5b6000806040838503121561356557600080fd5b61356e83613300565b9150602083013561357e81613544565b809150509250929050565b6000806000806080858703121561359f57600080fd5b6135a885613300565b966020860135965060408601359560600135945092505050565b6000806000606084860312156135d757600080fd5b833592506135e760208501613300565b915060408401356001600160401b038116811461360357600080fd5b809150509250925092565b6000806000806080858703121561362457600080fd5b61362d85613300565b935061363b60208601613300565b92506040850135915060608501356001600160401b0381111561365d57600080fd5b8501601f8101871361366e57600080fd5b61367d87823560208401613443565b91505092959194509250565b6000806040838503121561369c57600080fd5b823591506136ac60208401613300565b90509250929050565b600080604083850312156136c857600080fd5b6136d183613300565b91506136ac60208401613300565b600181811c908216806136f357607f821691505b60208210810361371357634e487b7160e01b600052602260045260246000fd5b50919050565b634e487b7160e01b600052603260045260246000fd5b60208082526022908201527f455243333532353a20617070726f76616c20746f2063757272656e74206f776e60408201526132b960f11b606082015260800190565b60008351613783818460208801613284565b64736c6f742f60d81b90830190815283516137a5816005840160208801613284565b01600501949350505050565b6000602082840312156137c357600080fd5b81516001600160401b038111156137d957600080fd5b8201601f810184136137ea57600080fd5b80516137f86134518261341c565b81815285602083850101111561380d57600080fd5b61381e826020830160208601613284565b95945050505050565b601f8211156108f157806000526020600020601f840160051c8101602085101561384e5750805b601f840160051c820191505b81811015610b2f576000815560010161385a565b81516001600160401b03811115613887576138876133d6565b61389b8161389584546136df565b84613827565b6020601f8211600181146138cf57600083156138b75750848201515b600019600385901b1c1916600184901b178455610b2f565b600084815260208120601f198516915b828110156138ff57878501518255602094850194600190920191016138df565b508482101561391d5786840151600019600387901b60f8161c191681555b50505050600190811b01905550565b60208082526031908201527f4552433732313a207472616e736665722063616c6c6572206973206e6f74206f6040820152701ddb995c881b9bdc88185c1c1c9bdd9959607a1b606082015260800190565b6000835161398f818460208801613284565b68636f6e74726163742f60b81b90830190815283516139b5816009840160208801613284565b01600901949350505050565b634e487b7160e01b600052601160045260246000fd5b81810381811115610728576107286139c1565b80820180821115610728576107286139c1565b60008351613a0f818460208801613284565b835190830190613a23818360208801613284565b01949350505050565b600060018201613a3e57613a3e6139c1565b5060010190565b600060208284031215613a5757600080fd5b81516109e181613544565b60018060a01b038616815284602082015283604082015282606082015260a060808201526000613a9560a08301846132a8565b979650505050505050565b600060208284031215613ab257600080fd5b81516109e181613251565b634e487b7160e01b600052603160045260246000fd5b6001600160a01b0385811682528416602082015260408101839052608060608201819052600090613b06908301846132a8565b9695505050505050565b8082028115828204841417610728576107286139c1565b600081613b3657613b366139c1565b50600019019056fe0b2aac84f3ec956911fd78eae5311062972ff949f38412e8da39069d9f068cc6a2646970667358221220b63e0f23c45ac4412ac2e43e849903d71d2fb95d9a0287bb3d5984ce52f88cc464736f6c634300081c0033",
  "linkReferences": {},
  "deployedLinkReferences": {}
}